:060000000A128A110C280F
:10000800FE00030EF0000A08F1000A128A11E32A22
:100018000A128A110F2883120313B901BA01BB010E
:10002800BC0183010A128A11032983120313AF004A
:100038002530A7002708AA00EC2825303006031928
:100048002628272833283008A7002F0884002708E7
:10005800831380000130A7002708AF07EC28AB0105
:100068000130A407FF30240784000A128A11A32252
:100078000A128A11B000A700A8012808003A03193B
:100088004628EC282708003A0319FE28643A031981
:1000980051280D3A03195128EC282A0884008313A3
:1000A8000008AD00840A0008AE000230A700270847
:1000B800AA07AE1F602861286A280330A70027080E
:1000C800AB04AD09AE09AD0A0319AE0AB001B00A16
:1000D8003008A7002707013E84000A128A11A322CC
:1000E8000A128A11A8000A128A11A3220A128A1176
:1000F800A90029082E02031D832828082D020318A9
:1001080086288728882892280130A7002708B00762
:1001180005303006031D912892286C282B080339D6
:10012800031997289828A3282D30A7002F088400A2
:100138002708831380000130A7002708AF0730087D
:10014800A7002708AC00E3280A30A0000030A1006F
:100158002C08A7002707013E84000A128A11A3224F
:100168000A128A11F2000A128A11A3220A128A11AB
:10017800F3002E08F5002D08F4000A128A119C21BC
:100188000A128A11730883120313A3007208A200CB
:100198000A128A11E0210A128A1183120313200815
:1001A800303EA8002808B0003008A7002F088400B7
:1001B8002708831380000130A7002708AF07FF3006
:1001C800A7002708AC072C0A031DEB28EC28A82851
:1001D8000130A407FF30240784000A128A11A322E1
:1001E8000A128A11A7002708B0003008031DFD284D
:1001F800FE2821282F088400831380010800073077
:10020800831603138100831203138E018F01831653
:1002180003138801870189010614861083120313CA
:1002280086108B170B17831603130C1483120313F2
:10023800901090121012101009140A128A118A22B2
:100248000A128A110A128A11F7220A128A118312D3
:10025800031387112030831203133B06033003195D
:100268003C06031D382939294229BB01BC0101304C
:10027800B9000030BA0010108610871509148B1CBD
:1002880046294729492986148B1000300A128A11F9
:100298001C220A128A11730883120313B800720809
:1002A800B7000B30B1003108A4003808A6003708A1
:1002B800A50032300A128A1119200A128A118030D8
:1002C8000A128A11B9220A128A1132300A128A11C4
:1002D80071220A128A117208013EF7007308031886
:1002E800013E003EF80032300A128A114C220A12EE
:1002F8008A11831203133808803AFF0083307F0283
:10030800031D882985303702031C8B298C292E2947
:10031800831203131018912992292E2910140130E1
:10032800B9000030BA0009102E290A128A110C28C7
:10033800F701F801720873040319A329A429DB291A
:10034800F901F90AB22901300310F20DF30DFF3E4D
:10035800031DA8290130F6007608F907F31FB5290F
:10036800B629A72901300310F70DF80DFF3E031D2C
:10037800B72973087502031DC32972087402031C88
:10038800C629C729CE297208F4027308031CF5038D
:10039800F502771401300310F30CF20CFF3E031D35
:1003A800CF290130F902031DDA29DB29B62978089B
:1003B800F3007708F20008008312031320082104D1
:1003C8000319E729E829172AFB01FB0AF629013056
:1003D8000310A00DA10DFF3E031DEC290130FA000A
:1003E8007A08FB07A11FF929FA29EB29210823021A
:1003F800031D002A20082202031C032A042A0A2AB1
:100408002008A2022108031CA303A3020130031041
:10041800A10CA00CFF3E031D0B2A0130FB02031D9B
:10042800162A172AFA292308A1002208A000080082
:10043800F60008307602031C222A232A262AF20113
:10044800F3014B2A0130F4007408831203139F054B
:100458007608F40002300310F40DFF3E031D2F2A26
:100468000310740DF50075089F043130F400F40B87
:100478003B2A3E2A831203131F151F19442A452AB3
:10048800412A1E08F300831603131E08F200080011
:1004980083120313A000A101A201662A21082007E4
:1004A800F90079088400831300080A128A11CE2201
:1004B8000A128A11013083120313A1070318A20A32
:1004C8000030A20778082202031D6C2A770821024F
:1004D800031C6F2A702A522A0800F5007508F400D8
:1004E8007408F6007B2A0130F4007408F6077608D1
:1004F800840083130008031D822A832A772A75083B
:100508007602F200F301F21BF303080038300A12F6
:100518008A11B9220A128A1166300A128A11B9227E
:100528000A128A110C300A128A11B9220A128A1187
:1005380001300A128A11B9220A128A1108000230FF
:100548008A000408840A82070034013400340A341B
:10055800003464340034E83403341034273420344D
:1005680025346434003431340034F40074088312C0
:10057800031388000710871007150D30F300FB30B0
:10058800F200F20BC52AF30BC52ACA2A83120313F9
:1005980007110800F4007408831203138800071475
:1005A800871007150D30F300FB30F200F20BDA2A42
:1005B800F30BDA2ADF2A83120313071108008312C8
:1005C80003130C1CE82AE92AF02A0130BB07031898
:1005D800BC0A0030BC070C1071088A00700E83003A
:1005E800FE0E7E0E09004130831203139F008030F7
:0805F800831603139F000800A5
:00000001FF
